{
  "contractName": "TopArt",
  "abi": [
    {
      "constant": true,
      "inputs": [],
      "name": "counter",
      "outputs": [
        {
          "name": "",
          "type": "uint256"
        }
      ],
      "payable": false,
      "stateMutability": "view",
      "type": "function"
    },
    {
      "constant": true,
      "inputs": [],
      "name": "vip",
      "outputs": [
        {
          "name": "",
          "type": "bool"
        }
      ],
      "payable": false,
      "stateMutability": "view",
      "type": "function"
    },
    {
      "constant": true,
      "inputs": [],
      "name": "owner",
      "outputs": [
        {
          "name": "",
          "type": "address"
        }
      ],
      "payable": false,
      "stateMutability": "view",
      "type": "function"
    },
    {
      "inputs": [],
      "payable": false,
      "stateMutability": "nonpayable",
      "type": "constructor"
    },
    {
      "anonymous": false,
      "inputs": [
        {
          "indexed": false,
          "name": "_message",
          "type": "string"
        }
      ],
      "name": "Set",
      "type": "event"
    },
    {
      "constant": false,
      "inputs": [
        {
          "name": "name",
          "type": "string"
        },
        {
          "name": "thumbnail",
          "type": "string"
        },
        {
          "name": "link",
          "type": "string"
        },
        {
          "name": "description",
          "type": "string"
        }
      ],
      "name": "add",
      "outputs": [],
      "payable": false,
      "stateMutability": "nonpayable",
      "type": "function"
    },
    {
      "constant": false,
      "inputs": [
        {
          "name": "name",
          "type": "string"
        },
        {
          "name": "thumbnail",
          "type": "string"
        },
        {
          "name": "link",
          "type": "string"
        },
        {
          "name": "description",
          "type": "string"
        }
      ],
      "name": "addVip",
      "outputs": [],
      "payable": true,
      "stateMutability": "payable",
      "type": "function"
    },
    {
      "constant": true,
      "inputs": [
        {
          "name": "id",
          "type": "uint256"
        }
      ],
      "name": "getName",
      "outputs": [
        {
          "name": "",
          "type": "string"
        }
      ],
      "payable": false,
      "stateMutability": "view",
      "type": "function"
    },
    {
      "constant": true,
      "inputs": [
        {
          "name": "id",
          "type": "uint256"
        }
      ],
      "name": "getThumbnail",
      "outputs": [
        {
          "name": "",
          "type": "string"
        }
      ],
      "payable": false,
      "stateMutability": "view",
      "type": "function"
    },
    {
      "constant": true,
      "inputs": [
        {
          "name": "id",
          "type": "uint256"
        }
      ],
      "name": "getLink",
      "outputs": [
        {
          "name": "",
          "type": "string"
        }
      ],
      "payable": false,
      "stateMutability": "view",
      "type": "function"
    },
    {
      "constant": true,
      "inputs": [
        {
          "name": "id",
          "type": "uint256"
        }
      ],
      "name": "getDescription",
      "outputs": [
        {
          "name": "",
          "type": "string"
        }
      ],
      "payable": false,
      "stateMutability": "view",
      "type": "function"
    },
    {
      "constant": true,
      "inputs": [
        {
          "name": "id",
          "type": "uint256"
        }
      ],
      "name": "getUpvotes",
      "outputs": [
        {
          "name": "",
          "type": "uint256"
        }
      ],
      "payable": false,
      "stateMutability": "view",
      "type": "function"
    },
    {
      "constant": true,
      "inputs": [
        {
          "name": "id",
          "type": "uint256"
        }
      ],
      "name": "getAddress",
      "outputs": [
        {
          "name": "",
          "type": "address"
        }
      ],
      "payable": false,
      "stateMutability": "view",
      "type": "function"
    },
    {
      "constant": false,
      "inputs": [
        {
          "name": "id",
          "type": "uint256"
        }
      ],
      "name": "like",
      "outputs": [
        {
          "name": "",
          "type": "uint256"
        }
      ],
      "payable": false,
      "stateMutability": "nonpayable",
      "type": "function"
    }
  ],
  "bytecode": "0x60806040526002805460ff19169055600160035534801561001f57600080fd5b5060008054600160a060020a03191633179055610c60806100416000396000f3006080604052600436106100b95763ffffffff7c0100000000000000000000000000000000000000000000000000000000600035041663114070aa81146100be5780632afa0ad4146101c6578063393b6df3146102535780634925ec551461026b57806361bc221a146102835780636b8ff574146102aa578063853bab71146102c2578063878fc108146102eb5780638da5cb5b146103fe57806398f427021461043c578063b93f9b0a14610454578063e82935da1461046c575b600080fd5b6040805160206004803580820135601f81018490048402850184019095528484526101c494369492936024939284019190819084018382808284375050604080516020601f89358b018035918201839004830284018301909452808352979a99988101979196509182019450925082915084018382808284375050604080516020601f89358b018035918201839004830284018301909452808352979a99988101979196509182019450925082915084018382808284375050604080516020601f89358b018035918201839004830284018301909452808352979a9998810197919650918201945092508291508401838280828437509497506104849650505050505050565b005b3480156101d257600080fd5b506101de600435610735565b6040805160208082528351818301528351919283929083019185019080838360005b83811015610218578181015183820152602001610200565b50505050905090810190601f1680156102455780820380516001836020036101000a031916815260200191505b509250505060405180910390f35b34801561025f57600080fd5b506101de6004356107ed565b34801561027757600080fd5b506101de600435610859565b34801561028f57600080fd5b506102986108c5565b60408051918252519081900360200190f35b3480156102b657600080fd5b506101de6004356108cb565b3480156102ce57600080fd5b506102d7610936565b604080519115158252519081900360200190f35b3480156102f757600080fd5b506040805160206004803580820135601f81018490048402850184019095528484526101c494369492936024939284019190819084018382808284375050604080516020601f89358b018035918201839004830284018301909452808352979a99988101979196509182019450925082915084018382808284375050604080516020601f89358b018035918201839004830284018301909452808352979a99988101979196509182019450925082915084018382808284375050604080516020601f89358b018035918201839004830284018301909452808352979a99988101979196509182019450925082915084018382808284375094975061093f9650505050505050565b34801561040a57600080fd5b50610413610ac9565b6040805173ffffffffffffffffffffffffffffffffffffffff9092168252519081900360200190f35b34801561044857600080fd5b50610298600435610ae5565b34801561046057600080fd5b50610413600435610afa565b34801561047857600080fd5b50610298600435610b25565b60008061048f610b45565b670de0b6b3a7640000341461052b57604080517f08c379a000000000000000000000000000000000000000000000000000000000815260206004820152602160248201527f416d6f756e742073686f756c6420626520657175616c20746f2031204574686560448201527f7200000000000000000000000000000000000000000000000000000000000000606482015290519081900360840190fd5b6000805460405173ffffffffffffffffffffffffffffffffffffffff9091169190670de0b6b3a76400009082818181858883f19350505050158015610574573d6000803e3d6000fd5b50506002805460ff191660019081179091556040805160e081018252600080825260208083018b81529383018a9052606083018990526080830188905260a083018290523360c0840181905282805294815282517fa6eef7e35abe7026729641147f7915573c7e97b47efa546f5f6e3230263bcb4990815593518051929750949550919384939261062a927fa6eef7e35abe7026729641147f7915573c7e97b47efa546f5f6e3230263bcb4a9290910190610b99565b5060408201518051610646916002840191602090910190610b99565b5060608201518051610662916003840191602090910190610b99565b506080820151805161067e916004840191602090910190610b99565b5060a0820151600582015560c0909101516006909101805473ffffffffffffffffffffffffffffffffffffffff191673ffffffffffffffffffffffffffffffffffffffff9092169190911790556040805160208082526019908201527f4461746120707573686564207375636365737366756c6c7921000000000000008183015290517f34541fcd24e9ce7170fc755631424bb60036805144c52b77987d66d721201f81916060908290030190a150505050505050565b6060600160008381526020019081526020016000206002018054600181600116156101000203166002900480601f0160208091040260200160405190810160405280929190818152602001828054600181600116156101000203166002900480156107e15780601f106107b6576101008083540402835291602001916107e1565b820191906000526020600020905b8154815290600101906020018083116107c457829003601f168201915b50505050509050919050565b60008181526001602081815260409283902060030180548451600294821615610100026000190190911693909304601f810183900483028401830190945283835260609390918301828280156107e15780601f106107b6576101008083540402835291602001916107e1565b60008181526001602081815260409283902060040180548451600294821615610100026000190190911693909304601f810183900483028401830190945283835260609390918301828280156107e15780601f106107b6576101008083540402835291602001916107e1565b60035481565b600081815260016020818152604092839020820180548451600294821615610100026000190190911693909304601f810183900483028401830190945283835260609390918301828280156107e15780601f106107b6576101008083540402835291602001916107e1565b60025460ff1681565b60008061094a610b45565b50506040805160e08101825260035480825260208083018981528385018990526060840188905260808401879052600060a085018190523360c08601819052938152600180845295812085518155915180519197509395859492936109b59391850192910190610b99565b50604082015180516109d1916002840191602090910190610b99565b50606082015180516109ed916003840191602090910190610b99565b5060808201518051610a09916004840191602090910190610b99565b5060a0820151600582015560c0909101516006909101805473ffffffffffffffffffffffffffffffffffffffff191673ffffffffffffffffffffffffffffffffffffffff9092169190911790556003805460010190556040805160208082526019908201527f4461746120707573686564207375636365737366756c6c7921000000000000008183015290517f34541fcd24e9ce7170fc755631424bb60036805144c52b77987d66d721201f81916060908290030190a150505050505050565b60005473ffffffffffffffffffffffffffffffffffffffff1681565b60009081526001602052604090206005015490565b60009081526001602052604090206006015473ffffffffffffffffffffffffffffffffffffffff1690565b600090815260016020819052604090912060050180549091019081905590565b60e060405190810160405280600081526020016060815260200160608152602001606081526020016060815260200160008152602001600073ffffffffffffffffffffffffffffffffffffffff1681525090565b828054600181600116156101000203166002900490600052602060002090601f016020900481019282601f10610bda57805160ff1916838001178555610c07565b82800160010185558215610c07579182015b82811115610c07578251825591602001919060010190610bec565b50610c13929150610c17565b5090565b610c3191905b80821115610c135760008155600101610c1d565b905600a165627a7a72305820ce14ec3b0a113c620b1da8efc396b6d34ac1ce4338555149be78f3066de8b0370029",
  "source": "pragma solidity ^0.4.24;\n\ncontract TopArt {\n  \n  address public owner;\n  \n  constructor() public {\n    owner = msg.sender;\n  }\n\t\n  event Set(\n    string _message\n  );\n\n  struct Data {\n    uint id;\n    string name;\n    string thumbnail;\n    string link;\n    string description;\n    uint upvotes;\n    address addr;\n  }  \n\n  mapping (uint => Data) dataItems;\n\t\n  bool public vip = false; \n\n  uint public counter = 1;\n\n  function add(string name, string thumbnail, string link, string description) public {\n    uint upvotes = 0;\n    address addr = msg.sender;\n    Data memory data = Data(counter, name, thumbnail, link, description, upvotes, addr);\n    dataItems[counter] = data;\n    counter++;\n    emit Set(\"Data pushed successfully!\");\n  }\n\n  function addVip(string name, string thumbnail, string link, string description) public payable {\n    require(msg.value == 1 ether, \"Amount should be equal to 1 Ether\");\n    owner.transfer(1 ether);\n    vip = true;\n    uint upvotes = 0;\n    address addr = msg.sender;\n    Data memory data = Data(0, name, thumbnail, link, description, upvotes, addr);\n    dataItems[0] = data;\n    emit Set(\"Data pushed successfully!\");\n  }\n\n  function getName(uint id) public view returns (string) {\n    return (dataItems[id].name);\n  }\n\n  function getThumbnail(uint id) public view returns (string) {\n    return (dataItems[id].thumbnail);\n  }\n\n  function getLink(uint id) public view returns (string) {\n    return (dataItems[id].link);\n  }\n\n  function getDescription(uint id) public view returns (string) {\n    return (dataItems[id].description);\n  }\n\n  function getUpvotes(uint id) public view returns (uint) {\n    return (dataItems[id].upvotes);\n  }\n\n  function getAddress(uint id) public view returns (address) {\n    return (dataItems[id].addr);\n  }\n\n  function like(uint id) public returns (uint) {\n    dataItems[id].upvotes++;\n    return dataItems[id].upvotes;\n  } \n}",
  "sourcePath": "/Users/work/Desktop/TopArt/contracts/TopArt.sol",
  "compiler": {
    "name": "solc",
    "version": "0.4.24+commit.e67f0147.Emscripten.clang"
  },
  "schemaVersion": "2.0.1",
  "updatedAt": "2018-11-23T14:18:12.161Z"
}