{
  "contractName": "TopArt",
  "abi": [
    {
      "constant": true,
      "inputs": [],
      "name": "counter",
      "outputs": [
        {
          "name": "",
          "type": "uint256"
        }
      ],
      "payable": false,
      "stateMutability": "view",
      "type": "function"
    },
    {
      "anonymous": false,
      "inputs": [
        {
          "indexed": false,
          "name": "_message",
          "type": "string"
        }
      ],
      "name": "StorageSet",
      "type": "event"
    },
    {
      "constant": false,
      "inputs": [
        {
          "name": "name",
          "type": "string"
        },
        {
          "name": "thumbnail",
          "type": "string"
        },
        {
          "name": "link",
          "type": "string"
        },
        {
          "name": "description",
          "type": "string"
        }
      ],
      "name": "add",
      "outputs": [],
      "payable": false,
      "stateMutability": "nonpayable",
      "type": "function"
    },
    {
      "constant": true,
      "inputs": [
        {
          "name": "id",
          "type": "uint256"
        }
      ],
      "name": "getName",
      "outputs": [
        {
          "name": "",
          "type": "string"
        }
      ],
      "payable": false,
      "stateMutability": "view",
      "type": "function"
    },
    {
      "constant": true,
      "inputs": [
        {
          "name": "id",
          "type": "uint256"
        }
      ],
      "name": "getThumbnail",
      "outputs": [
        {
          "name": "",
          "type": "string"
        }
      ],
      "payable": false,
      "stateMutability": "view",
      "type": "function"
    },
    {
      "constant": true,
      "inputs": [
        {
          "name": "id",
          "type": "uint256"
        }
      ],
      "name": "getLink",
      "outputs": [
        {
          "name": "",
          "type": "string"
        }
      ],
      "payable": false,
      "stateMutability": "view",
      "type": "function"
    },
    {
      "constant": true,
      "inputs": [],
      "name": "getCounter",
      "outputs": [
        {
          "name": "",
          "type": "uint256"
        }
      ],
      "payable": false,
      "stateMutability": "view",
      "type": "function"
    },
    {
      "constant": true,
      "inputs": [
        {
          "name": "id",
          "type": "uint256"
        }
      ],
      "name": "getDescription",
      "outputs": [
        {
          "name": "",
          "type": "string"
        }
      ],
      "payable": false,
      "stateMutability": "view",
      "type": "function"
    },
    {
      "constant": true,
      "inputs": [
        {
          "name": "id",
          "type": "uint256"
        }
      ],
      "name": "getUpvotes",
      "outputs": [
        {
          "name": "",
          "type": "uint256"
        }
      ],
      "payable": false,
      "stateMutability": "view",
      "type": "function"
    },
    {
      "constant": true,
      "inputs": [
        {
          "name": "id",
          "type": "uint256"
        }
      ],
      "name": "getAddress",
      "outputs": [
        {
          "name": "",
          "type": "address"
        }
      ],
      "payable": false,
      "stateMutability": "view",
      "type": "function"
    },
    {
      "constant": false,
      "inputs": [
        {
          "name": "id",
          "type": "uint256"
        }
      ],
      "name": "like",
      "outputs": [
        {
          "name": "",
          "type": "uint256"
        }
      ],
      "payable": false,
      "stateMutability": "nonpayable",
      "type": "function"
    }
  ],
  "bytecode": "0x60806040526001805534801561001457600080fd5b50610843806100246000396000f3006080604052600436106100a35763ffffffff7c01000000000000000000000000000000000000000000000000000000006000350416632afa0ad481146100a8578063393b6df3146101355780634925ec551461014d57806361bc221a146101655780636b8ff5741461018c578063878fc108146101a45780638ada066e146102b957806398f42702146102ce578063b93f9b0a146102e6578063e82935da14610327575b600080fd5b3480156100b457600080fd5b506100c060043561033f565b6040805160208082528351818301528351919283929083019185019080838360005b838110156100fa5781810151838201526020016100e2565b50505050905090810190601f1680156101275780820380516001836020036101000a031916815260200191505b509250505060405180910390f35b34801561014157600080fd5b506100c06004356103e4565b34801561015957600080fd5b506100c060043561044f565b34801561017157600080fd5b5061017a6104ba565b60408051918252519081900360200190f35b34801561019857600080fd5b506100c06004356104c0565b3480156101b057600080fd5b506040805160206004803580820135601f81018490048402850184019095528484526102b794369492936024939284019190819084018382808284375050604080516020601f89358b018035918201839004830284018301909452808352979a99988101979196509182019450925082915084018382808284375050604080516020601f89358b018035918201839004830284018301909452808352979a99988101979196509182019450925082915084018382808284375050604080516020601f89358b018035918201839004830284018301909452808352979a9998810197919650918201945092508291508401838280828437509497506105409650505050505050565b005b3480156102c557600080fd5b5061017a6106c7565b3480156102da57600080fd5b5061017a6004356106ce565b3480156102f257600080fd5b506102fe6004356106e3565b6040805173ffffffffffffffffffffffffffffffffffffffff9092168252519081900360200190f35b34801561033357600080fd5b5061017a60043561070e565b600081815260208181526040918290206002908101805484516001821615610100026000190190911692909204601f810184900484028301840190945283825260609391929091908301828280156103d85780601f106103ad576101008083540402835291602001916103d8565b820191906000526020600020905b8154815290600101906020018083116103bb57829003601f168201915b50505050509050919050565b6000818152602081815260409182902060030180548351601f60026000196101006001861615020190931692909204918201849004840281018401909452808452606093928301828280156103d85780601f106103ad576101008083540402835291602001916103d8565b6000818152602081815260409182902060040180548351601f60026000196101006001861615020190931692909204918201849004840281018401909452808452606093928301828280156103d85780601f106103ad576101008083540402835291602001916103d8565b60015481565b60606000808381526020019081526020016000206001018054600181600116156101000203166002900480601f0160208091040260200160405190810160405280929190818152602001828054600181600116156101000203166002900480156103d85780601f106103ad576101008083540402835291602001916103d8565b60008061054b61072b565b50506040805160e0810182526001805480835260208084018a81528486018a90526060850189905260808501889052600060a086018190523360c0870181905293815280835295862085518155905180519697509295859491936105b49392850192019061077f565b50604082015180516105d091600284019160209091019061077f565b50606082015180516105ec91600384019160209091019061077f565b506080820151805161060891600484019160209091019061077f565b5060a0820151600582015560c0909101516006909101805473ffffffffffffffffffffffffffffffffffffffff191673ffffffffffffffffffffffffffffffffffffffff90921691909117905560018054810190556040805160208082526019908201527f4461746120707573686564207375636365737366756c6c7921000000000000008183015290517f60cdc157ca4737a5d39a0e107532616e7bf6946e615228812c7f9bc9f81797a6916060908290030190a150505050505050565b6001545b90565b60009081526020819052604090206005015490565b60009081526020819052604090206006015473ffffffffffffffffffffffffffffffffffffffff1690565b600090815260208190526040902060050180546001019081905590565b60e060405190810160405280600081526020016060815260200160608152602001606081526020016060815260200160008152602001600073ffffffffffffffffffffffffffffffffffffffff1681525090565b828054600181600116156101000203166002900490600052602060002090601f016020900481019282601f106107c057805160ff19168380011785556107ed565b828001600101855582156107ed579182015b828111156107ed5782518255916020019190600101906107d2565b506107f99291506107fd565b5090565b6106cb91905b808211156107f957600081556001016108035600a165627a7a723058200353bfc0ed64aa9d8de720a76f33bf39e5b700543bc9c03a1215b94cebe4388a0029",
  "source": "pragma solidity ^0.4.24;\n\ncontract TopArt {\n  event StorageSet(\n    string _message\n  );\n\n  struct Data {\n    uint id;\n    string name;\n    string thumbnail;\n    string link;\n    string description;\n    uint upvotes;\n    address addr;\n  }  \n\n  mapping (uint => Data) dataItems;\n\t\n  uint public counter = 1;\n\n  function add(string name, string thumbnail, string link, string description) public {\n    uint upvotes = 0;\n    address addr = msg.sender;\n    Data memory data = Data(counter, name, thumbnail, link, description, upvotes, addr);\n    data.id = counter;\n    data.name = name;\n    data.thumbnail = thumbnail;\n    data.link = link;\n    data.description = description;\n    data.upvotes = upvotes;\n    data.addr = addr;\n    dataItems[counter] = data;\n    counter++;\n    emit StorageSet(\"Data pushed successfully!\");\n  }\n\n  function getName(uint id) public view returns (string) {\n    return (dataItems[id].name);\n  }\n\n  function getThumbnail(uint id) public view returns (string) {\n    return (dataItems[id].thumbnail);\n  }\n\n  function getLink(uint id) public view returns (string) {\n    return (dataItems[id].link);\n  }\n\n  function getCounter() public view returns (uint) {\n    return counter;\n  }\n\n  function getDescription(uint id) public view returns (string) {\n    return (dataItems[id].description);\n  }\n\n  function getUpvotes(uint id) public view returns (uint) {\n    return (dataItems[id].upvotes);\n  }\n\n  function getAddress(uint id) public view returns (address) {\n    return (dataItems[id].addr);\n  }\n\n  function like(uint id) public returns (uint) {\n    dataItems[id].upvotes++;\n    return dataItems[id].upvotes;\n  } \n\n}",
  "sourcePath": "/Users/work/Desktop/TopArt/contracts/TopArt.sol",
  "compiler": {
    "name": "solc",
    "version": "0.4.24+commit.e67f0147.Emscripten.clang"
  },
  "schemaVersion": "2.0.1",
  "updatedAt": "2018-11-21T15:35:27.187Z"
}